:020000040800F2
:100000002005002001010008090100080B0100087B
:100010000D0100080F010008110100080000000098
:1000200000000000000000000000000013010008B4
:1000300015010008000000001701000875110008F4
:100040001B0100081B0100081B0100081B01000820
:100050001B0100081B010008E50500083106000827
:100060001B0100081B0100081B0100081B01000800
:100070001B0100081B0100081B0100081B010008F0
:100080001B0100081B0100081B0100081B010008E0
:100090001B0100081B0100081B01000841060008A5
:1000A0001B0100081B0100081B0100081B010008C0
:1000B0001B0100081B0100081B0100081B010008B0
:1000C0001B0100081B0100081B0100081B010008A0
:1000D0001B0100081B0100081B010008F9130008A0
:1000E000F50500081B0100081B010008DFF80CD013
:1000F00000F02AF8004800470921000820050020E8
:100100000648804706480047FEE7FEE7FEE7FEE7B1
:10011000FEE7FEE7FEE7FEE7FEE7FEE779110008EF
:10012000ED000008D2B201E000F8012B491EFBD21D
:1001300070470022F6E710B513460A4604461946F2
:10014000FFF7F0FF204610BD064C074D06E0E068C3
:1001500040F0010394E8070098471034AC42F6D30E
:10016000FFF7C8FF2C2A00084C2A000882680029E3
:1001700042F0010308BF22F0010383607047C06CA6
:1001800080B270470068084018BF01207047000027
:1001900010B542680E4B1A400B681A430B7942EABD
:1001A0000322426082680B4B1A40D1E90234224399
:1001B0001A434B7942EA43028260097CC26A0139E0
:1001C000C9B222F4700242EA0151C16210BD00BFFF
:1001D000FFFEF0FFFDF7F1FF70B501EB41040929C7
:1001E00088BF1E3C0725A34005FA04F41025092901
:1001F00088BF0C254659062A26EA040443EA04036C
:10020000435103D834306FF0040307E00C2A87BF52
:100210002C306FF0400330306FF0220302EB82028B
:100220001A441F23914003FA02F2036823EA0202F0
:100230001143016070BD8268002942F4A00308BF29
:1002400022F4A003836070470D2001F08BBC0C20CA
:1002500001F088BC0B2001F085BC0000B0B500F0B7
:1002600075F8DF4C00252046012100F0EDFA632DE2
:1002700005D820B1012001F02DFC0135F3E7632DF5
:1002800084BF0120B0BD00252046012100F0DCFA2A
:10029000EF2D05D820B9012001F01CFC0135F3E752
:1002A0000020EF2D88BF0120B0BD00BF1CB5042089
:1002B000012100F0FFFE2F48C94C019001A9204602
:1002C00000F032FA2046012100F0CAFA1CBD00BF3E
:1002D000B0B5A34D04462878A0420BD9EFF31080A7
:1002E00072B600F0A5F8FFF7B9FF30B14FF2D85061
:1002F00062B61BE00E48643018E0552000F04EF95D
:1003000005EBC400441C0025082D04D0605D00F0FE
:1003100045F90135F8E7BE2000F040F900F07AF821
:10032000044600F077F844EA002062B600B2B0BD9F
:10033000D8F5FFFF10B5FFF7B9FF00F079F8FFF728
:100340008DFF044600F08AF8204610BDE0B5482035
:100350008DF807000120ADF80400A14801A900F0C4
:10036000E3F98CBDE0B5034801A901909C4800F079
:10037000DBF98CBD010002102DE9F0419848244CB6
:1003800000260227804638061ED0FFF7EBFF4046C6
:100390000121454600F062FA0220A04740460121B3
:1003A00000F05EFAFFF7D2FF0C20A0474046012183
:1003B00000F04AFA05463220A047002D18BF01255B
:1003C00045EA4606013FDEE7F0B2BDE8F08100BF36
:1003D000B0B5FFF7C7FF824C0121204600F03EFA7E
:1003E0000B4D0220A8472046012100F039FA0C20CD
:1003F000A847FFF7ABFF2046012100F025FA04468D
:100400003220A847002C18BF01242046B0BD00BFF1
:10041000D51A0008B0B500240025082C05D0FFF738
:10042000D7FFA04005430134F7E7E8B2B0BD0000B4
:1004300010B5FFF797FF6A4C0121204600F00EFA35
:100440004FF4F07001F046FB2046012100F008FA5D
:100450000F20BDE8104001F03DBB00BF2DE9F04F7B
:1004600093B000208DF84800119011AE00200027B5
:100470000090FFF7DDFF4FF4F07001F02BFBF02050
:1004800000F08CF84FF000084FF00009B9F1080FA8
:1004900054D001A800EB080B00254FF0000A082DEE
:1004A00040D0FFF769FF5FFA8AF110F003004FEACE
:1004B000510A0AD002281AD0012833D1002000F0B6
:1004C00051F800200BF8050019E0F8B208EB05011F
:1004D000305C4C1CE1B2814213D9002000F042F89C
:1004E000002001370BF80500F8B2345407E0012072
:1004F00000F038F801200BF805006AF07F0A01359A
:10050000CDE707D21BF80540204600F02BF84AEA59
:10051000C41AF4E78142F2D1012000F023F801204F
:10052000013FE8E70E48009908F1080800EBC10018
:10053000484480F801A009F10109A7E700980146A5
:10054000411C01290846009104D8F8B2305C00280B
:100550007FF48FAF02480099017013B0BDE8F08FAF
:10056000F6000020B0B50446FFF7FCFE1C4D01214B
:10057000284600F073F90220002C08BF3C2001F04F
:10058000A9FA2846012100F06BF93C20002C08BF95
:100590000220BDE8B04001F09DBA00BFF8B50446A6
:1005A000FFF7E0FE0E4D0126082E88BFF8BD284655
:1005B000012100F053F90A2014F0010708BF3C2084
:1005C00001F088FA2846012100F04AF93220002F74
:1005D00008BF022001F07EFA01366408E4E700BF9C
:1005E0000008014080B501F0ADFA0120BDE880406F
:1005F00000F040B810B54FF480504FF4805400F034
:1006000043F8012801D1012009E04FF400504FF4D4
:10061000005400F039F8012818BF10BD0A20034922
:1006200008702046BDE8104000F028B828000020DF
:1006300080B501F08BFA0220BDE8804000F01AB8C6
:1006400080B54FF4807000F01FF8012806D04FF4F9
:10065000007000F019F8012818BF80BD01F07AFA87
:100660004FF4807000F00AF84FF40070BDE880404D
:1006700000F004B803490860704700BF01490860F2
:10068000704700BF140401401C490A68024018BFAB
:1006900001224969084018BF01201040704700BF7F
:1006A00010B582791549E2B102680B6893430B607B
:1006B0004B6893434B6003790B431C6822431A60D9
:1006C00002688B6893438B60CB689343CB6040791F
:1006D00010280ED1886810438860C8681043C8602D
:1006E00010BD0279006811430A6822EA0000086020
:1006F00010BD084301681143016010BD00040140B2
:10070000B0B50C22074C02EA810201F0FC010F2374
:100710000D59934025EA03030B5190400A591043A9
:100720000851B0BD080001402DE9F04391F8039055
:1007300009F00F085FEAC96344BF8B7848EA0308F1
:1007400009880B0621D0046800254FF0010E4FF0F8
:100750000F0C0027082F17D00EFA07F30B4210D00A
:100760000CFA05F208FA05F624EA020242EA060447
:10077000B9F1480F04D0B9F1280F08BF436100E078
:10078000036104350137E5E70460B1F5807F23D3C9
:10079000446800254FF4807E4FF00F0C0027082F8F
:1007A00019D00EFA07F606EA0102B24210D10CFA8D
:1007B00005F308FA05F224EA030343EA0204B9F157
:1007C000480F04D0B9F1280F08BF466100E0066168
:1007D00004350137E3E74460BDE8F083F0B5194A1A
:1007E0000028144602F1180348BF1C46256800F48F
:1007F000401784B2C0F30346B7F5401F06D1166810
:1008000025F0706526F0706616600EE0C70206D40B
:100810006FF00F0606EA504604FA06F602E00327D8
:1008200007FA06F6B54345F0706531B16FF00F0178
:1008300001EA504104FA01F10D43002848BF1A466D
:100840001560F0BD040001408068084018BF012019
:100850007047C068084018BF012070474161704769
:1008600001617047B0B57F4C00257F482560016865
:1008700021F470410160016841F4005101600220DF
:10088000656001F027F901202060022001F022F9C3
:100890002560B0BD1CB508200121012400F00AFC30
:1008A000044801A90190D648FFF73EFF6D48046057
:1008B00044601CBD000C021070B56A4C00256A48EB
:1008C00025600168012621F470410160016841F44E
:1008D000005101600220666001F0FCF802202660F1
:1008E00001F0F8F8256070BD2DE9F84F5D4D8046A8
:1008F0004FF0000A5C48C5F800A00168DFF894B327
:1009000021F47041016001684FF0010941F4004198
:10091000002600270160072E14D80220C5F800A089
:10092000D8470320C5F80090D84755F87C4C0220E2
:10093000D847C5F800A0002C18BF012444EA470797
:100940000136E8E7B8F1000F02D0FFF78BFF01E0B6
:10095000FFF7B2FFF8B2BDE8F88F00BF2DE9F8430A
:10096000404D04464FF000083F48C5F8008001683C
:10097000C84E21F4704101600168072741F400511D
:100980004FF001090160781C08BFBDE8F883012021
:10099000B04724FA07F000F0010068600220B04779
:1009A0000220C5F80090B0470120C5F80080B0478C
:1009B000013FE8E7B0B52C482A4C016821F47041AA
:1009C0000160016841F40051016001206060206015
:1009D000042001F07FF800250420656001F07AF81A
:1009E0002560B0BD10B520481E4C016821F470414F
:1009F0000160016841F400510160002020606060E6
:100A0000042001F067F80120206060600420BDE848
:100A1000104001F05FB800BFF8B5124C9D4F0025A3
:100A2000012025600126B84701206660B8470E48BE
:100A3000016821F470410160016841F400410160E6
:100A400001202660B84754F87C0C40B1681CB5F50D
:100A50007A7F0546F7D3FFF7C5FF0120F8BD0020D8
:100A60002060F8BDA8812142040C014070B5884C7B
:100A70000025894825600168864E21F0704101609B
:100A8000016841F00051016002206560B04701201B
:100A900020600220B047256001203146BDE870404B
:100AA000084700BF1CB508200121012400F002FB0B
:100AB000044801A901907848FFF736FE74480460A5
:100AC00044601CBDC0000210F8B5714C0025E5481B
:100AD000256001686F4F21F07041016001680126B7
:100AE00041F00051016002206660B8470220266094
:100AF000B847256001203946BDE8F840084700BFE7
:100B00002DE9F84F624D80464FF0000AD548C5F8F0
:100B100000A001684FF0010921F0704101600168F7
:100B200041F000410160012000F0D4FFDFF864B122
:100B300000260027072E14D80320C5F800A0D847A8
:100B40000220C5F80090D84755F87C4C0220D847C1
:100B5000C5F800A0002C18BF012444EA470701365D
:100B6000E8E7B8F1000F02D0FFF780FF01E0FFF7E0
:100B7000ABFFF8B2BDE8F88F2DE9F843444D0446C9
:100B80004FF00008B748C5F800800168414E21F0D9
:100B9000704101600168072741F000514FF00109E1
:100BA0000160781C08BFBDE8F8830120B04724FA33
:100BB00007F000F0010068600220B0470220C5F88D
:100BC0000090B0470120C5F80080B047013FE8E73A
:100BD000B0B5DE482E4C016821F07041016001681B
:100BE00041F000510160012060602060042000F0AD
:100BF00071FF00250420656000F06CFF2560B0BD2A
:100C0000000C014070B5224C0020D04920600A68D9
:100C1000204E22F070420A600A6842F000520A60D8
:100C200060600420B047012501202560B047656061
:100C300004203146BDE87040084700BFF8B5144DA8
:100C4000144F002401202C600126B84701206E605B
:100C5000B847BE48016821F070410160016841F069
:100C60000041016001202E60B84755F87C0C38B176
:100C7000601CFA2C0446F8D3FFF7C4FF012404E0FB
:100C8000002401202C6000F025FF2046F8BD00BFA5
:100C900098812142D51A0008000C0140554988422C
:100CA00005D05549884218BF7047FFF7FBBEFFF7D4
:100CB000F1BD00BFF8B5064600201C460090304646
:100CC00000230D4600F03AF8FF2800D0F8BD49484F
:100CD000069F864219D0484886422DD1FFF778FFFB
:100CE00045F00100FFF748FFFFF7A8FFB0B907E0A4
:100CF000781E18BF0120FFF703FF04F8010B013F26
:100D0000002FF5D1FFF77EFF16E0FFF753FE45F009
:100D10000100FFF723FEFFF77FFE48B10220F8BD78
:100D2000781E18BF0120FFF7DFFD04F8010B013F1B
:100D3000002FF5D1FFF756FE0020F8BDF8B50E469E
:100D40002C49069F1C46154688420ED02A498842E7
:100D50004DD1FFF73DFF06F0FE00FFF70DFFFFF757
:100D60006DFF68B1FFF74EFF08E0FFF723FE06F0C6
:100D7000FE00FFF7F3FDFFF74FFE50B10220F8BD74
:100D80002846FFF7F9FEFFF759FF60B1FFF73AFF7A
:100D900007E02846FFF7E2FDFFF73EFE88B1FFF7C8
:100DA00021FE0320F8BDDFB1E7B114F8010BFFF716
:100DB000E3FE013FFFF742FF0028F5D0FFF722FFD7
:100DC0000CE06FB18FB114F8010BFFF7C7FD013FC5
:100DD000FFF722FE0028F5D0FFF704FE0420F8BD3F
:100DE000FF20F8BDFFF70EFF01E0FFF7FBFD00203D
:100DF000F8BD00BF00580040005400400A484CF6BF
:100E0000CC410160704700BF07484AF6AA21016043
:100E1000704700BF01490860704700BF04300040C0
:100E200001490860704700BF003000407CB5474C66
:100E3000002104F500552846002600F01EFA284639
:100E4000002100F011FA084801A9067045480190F8
:100E50002046FFF769FC20464FF40041FFF7FEFCF7
:100E60007CBD00BF000C01400400002010B519201B
:100E700000F00EF8054C0121204600F0FEF9204656
:100E80000121BDE8104000F0EFB900BF002C014087
:100E90002DE9F04188B02D4D002845D00446642846
:100EA0002B484FF06408A8BF444604704FF400601C
:100EB000012100F0FFF82748694600902846FFF717
:100EC00033FC254E00273088ADF816700138ADF898
:100ED0001A70ADF8180021482149006805F5005541
:100EE000B0FBF1F005A90138ADF81400284600F078
:100EF0003DFA0420ADF81270ADF80800702031887A
:100F0000ADF80400C4F16400484390FBF8F0ADF87C
:100F10000E70ADF80A0001A9284600F0BBF928467A
:100F2000082100F0EBF90DE00E48694600902846D4
:100F3000FFF7FAFB28464FF40041FFF78FFC044807
:100F40000021017008B0BDE8F08100BF000C014035
:100F50001701002000800118080000200C0000206C
:100F600040420F0000800110084A6421642828BF15
:100F700008461070C0F164005288C0B25043B0FB04
:100F8000F1F081B2024800F0EEB900BF0400002089
:100F90000004004080B50C48007848B1EFF31080A1
:100FA00072B6FFF745FAFFF759F920B162B680BD76
:100FB0004FF0FF3080BDCC20FFF7F0FA4420FFF760
:100FC000EDFA002062B680BDF600002070B5C27850
:100FD0001149A2B1154A07231268457823EA122263
:100FE0000F238678D340C2F104020478334005FA17
:100FF00002F21A4312010B1983F8002300E080313A
:101000000078012300F01F0203FA02F2C0F342103D
:1010100041F8202070BD00BF00E100E00249084314
:1010200002490860704700BF0000FA050CED00E0BF
:1010300082786AB102780244D2780A7001788278A4
:101040000131013A01F03F018270017000207047C8
:101050004FF0FF30704710B58278402A06D13F220A
:1010600082700378013303F03F0303704378C418A0
:10107000E170511C8170591C01F03F01417000204A
:1010800010BD0000044A002911680CBF21EA0000CD
:1010900008431060704700BF1C100240044A00293A
:1010A00011680CBF21EA000008431060704700BFC0
:1010B00010100240044A002911680CBF21EA000008
:1010C00008431060704700BF18100240044A00290E
:1010D00011680CBF21EA000008431060704700BF90
:1010E0000C10024010B518490A6802F00C03174AA8
:1010F000082B0BD10B68C3F383430C680233E40362
:1011000002D50C68A40300D5114A5A4302600B684B
:10111000104CC3F30313E35CDA4042600B68C3F383
:101120000223E35C22FA03F383600B68C3F3C22358
:10113000E35CDA40C2600968074BC1F38131595C56
:10114000B2FBF1F1016110BD0410024000127A00FF
:1011500000093D001A2A0008162A0008044904283C
:101160000A6822F0040308BF42F004030B607047D2
:1011700010E000E001F026BA82B03648364A016835
:1011800041F0010101604168114041600168334A4A
:1011900011400160016821F480210160416821F45F
:1011A000FE0141604FF41F01816000210191009117
:1011B000016841F480310160016801F4003100915F
:1011C000019901310191009919B90199B1F5A06F07
:1011D000F2D10168890354BF0021012100910099D7
:1011E000012930D11E490A6842F010020A600A68DB
:1011F00022F003020A600A6842F002020A604168B3
:10120000416041684160416841F4806141604168EA
:1012100021F47C114160416841F4E81141600168AA
:1012200041F08071016001688901FCD5416821F0BD
:1012300003014160416841F002014160416801F0F1
:101240000C010829FAD107484FF00061016002B093
:10125000704700BF001002400000FFF8FFFFF6FEDD
:101260000020024008ED00E00288002942F001035E
:1012700008BF22F0010303807047B0F84420002922
:1012800013466FF3DF3318BF42F40043A0F8443035
:101290007047000070B5028C22F4807202840A89C3
:1012A000038C23F4007343EA02224B88848842EAC9
:1012B00003220B88858B25F073052B434A4DA842EA
:1012C00002D04A4DA84212D18D8924F4405444EAF8
:1012D0000514CD8940F2FF4644EA05144D8922F4F5
:1012E00040622D02B5432A438D8842EA052284805C
:1012F0008383C9888187028470BD00BF828B22F0FE
:101300000802114381837047B0B5028C22F48052E9
:1013100002840A89038C23F4005343EA02324B8887
:1013200042EA033283880C88858B25F4E64545EA3A
:1013300004242D4DA84202D02C4DA84204D18D8901
:1013400023F4804343EA851383808483C988A0F80B
:1013500040100284B0BD00BF828B22F4006242EADA
:10136000012181837047A0F84010704710B50288B2
:10137000B0F1804F0ED0194B98420BD0184B9842C9
:1013800008D0184B984205D0174B984202D0174B03
:10139000984203D14B8822F070021A43144C40F457
:1013A0008063A34203D0CB8822F440721A430280A8
:1013B0008A8882850A8802850E4A02444FEAB22250
:1013C000072A07D8012303FA02F212F0E50F1CBF27
:1013D000097A01860121818210BD00BF000400400E
:1013E00000080040000C004000340140002C014087
:1013F0000014004000D4FEBF10B5404C40F225510F
:10140000204600F086F870B100F0ACFA204640F2B9
:10141000255100F01FF8204640F224410122BDE88A
:10142000104000F092B8204640F2244100F071F8DC
:1014300070B1204640F22441002200F086F800F00E
:1014400007FA204640F22441BDE8104000F002B8FF
:1014500010BD00BF090A012202FA01F1C94301804F
:1014600070478289002942F4005308BF22F40053D8
:101470008381704780B52049884218D01F4988422F
:101480001DD01F49884222D01E49884227D0614979
:10149000884218BF80BD4FF480400121FFF716FE3F
:1014A0004FF480400021BDE88040FFF70FBE4FF4AD
:1014B00000300121FFF7F2FD4FF4003016E04FF449
:1014C00080200121FFF7EAFD4FF480200EE04FF469
:1014D00000200121FFF7E2FD4FF4002006E04FF469
:1014E00080100121FFF7DAFD4FF480100021BDE8E4
:1014F0008040FFF7D3BD00BF0044004000480040DB
:10150000004C0040005000400088084018BF0120F7
:10151000704701F01F02012303FA02F2C1F34213E4
:10152000022B06D0012B14BF00F1140300F10C03B1
:1015300001E000F110031B880088090AC84012EA84
:10154000030118BF01210840704710B501F01F03C7
:10155000012404FA03F3C1F342141421022C08BF3E
:101560001021012C08BF0C21002A42580CBF9A43BD
:101570001A43425010BD000070B586B004460D46B7
:10158000C888218A01AE21F4405108432082A089F5
:101590004EF6F3110840A988084329890843698950
:1015A0000843A081A889A18A21F440710843A08240
:1015B0003046FFF797FD174906F108008C4208BF37
:1015C00006F10C00006819214843B4F90C100222FE
:1015D000002948BF012229686FF063039140B0FBE6
:1015E000F1F06421B0FBF1F2042502FB0300B4F931
:1015F0000C30002B48BF0325A8403230B0FBF1F07F
:101600000F21002B48BF0721084040EA021020812B
:1016100006B070BD0038014080886FF35F207047CE
:101620006FF35F218180704700214FF440224FF417
:1016300016538181C0E9003182607047B0B586B031
:10164000102001210124FFF735FD4FF480600121B6
:10165000FFF730FD8DF810400E4C00254FF4602050
:101660000395029069462046ADF804500095FEF7B8
:101670008FFD0E208DF81750ADF81400A4F5C05062
:1016800005A9FFF751F820460121FEF76FFD06B0CE
:10169000B0BD00BF0028014080B54FF4A060FFF747
:1016A000BDFC00F06DFF00F07FFB3C2000F06CFC07
:1016B00001F099F945F25550FFF7B2FB0120FFF711
:1016C000A9FBFFF79BFB0020FFF7E2FB00F096F978
:1016D00000F050FC002080BDB0B5344C607802288A
:1016E00013D001284FD1C4480221FFF7ADF810B341
:1016F000002565812079022804D300F063FA08B937
:1017000000F0B2F965702571B0BDBB480121FFF74B
:101710009BF848B30025A581A079012808D100F0E5
:10172000F1F90121012808BF0221084600F0F6F96D
:101730006570A571B0BD60890130608180B2B0F57F
:10174000FA7F21D90125257100F02AF9C349022821
:10175000087028BF2570608942F21171884212D347
:1017600042F210706081B0BDA0890130A08180B2CA
:10177000042808D30121A17142F21171884202D3D9
:1017800042F21070A081B0BD972809D3B348007809
:10179000042803D10120002100F0D0FD032003E044
:1017A00002282CBF022000202071B0BD9A0000202A
:1017B000F8B50020ADF8020000F0E4FC1D4C0DF17E
:1017C00002022046002100F0F4FC38B10DF10202C3
:1017D00020460021002500F0ECFC38B99DF80300FC
:1017E00000F0F0005038B0FA80F045099D48124FE3
:1017F000057000200DF10205ADF802002046002121
:101800002A46B847A4F58066304600212A46B847E4
:1018100000F052FC40F2FF10ADF802002046082113
:101820002A46B847304608212A46B84700F086FBCA
:10183000F8BD00BF00580040C9210008002221B1B6
:1018400010F8013B01391A44F9E7D0B270470000A3
:101850002DE9F84F514F424EDFF8AC9A07F1030BD8
:101860004FF007084FF0000A37E03CB107F10B00DA
:101870002946FFF7DDFB0135013CF6E7F878A5289E
:1018800004D15846072101F09FF8E0B10020062856
:1018900005D039180A79A52A06D00130F7E787F86C
:1018A00002A086F8008018E0C0F10602BA70421C5F
:1018B000327000228318062B0FD08C182479BB18A5
:1018C000DC700132F6E738790538072805D8DFE8FB
:1018D00000F00E1A1E222A042E343478787BA0429F
:1018E00038BFBDE8F88FB8783844C51CBDE77879B3
:1018F00005282AD00428F0D199F800005A2828BFDA
:101900005A200A3027E0787900F008FEE5E7787978
:1019100000F0D4FDE1E7F879C0070CBF01200220F8
:1019200000F0FCF8D9E7B8796428D6D814E0F87943
:10193000800707D400F08AFDCFE7D7F8050000F054
:1019400093FBCAE700F086FDC7E799F800000A2874
:1019500098BF0A200A38C0B2FFF706FBBDE700BFF8
:101960001000002010B50C48FFF756FE0B4C6178B4
:1019700039B104F10B02C1B21046BDE81040FFF7C7
:101980006ABBC1B2A52905D104F10B00FFF763FBC7
:101990000120607010BD00BF00480040A80000207A
:1019A000B0B5874D4FF480712846FEF74DFF0446D1
:1019B00028464FF40071FEF747FF0028014618BF84
:1019C000012114B109B90120B0BD002C18BF0124B8
:1019D00010B10CB90220B0BD44EA010001281CBFBF
:1019E0000320B0BD00F0EEF808B10420B0BDE3491B
:1019F00001200870B0BD00BF000C0140B0B5744CB0
:101A00004FF400512046FEF729FFDC480121017008
:101A100000F024FD022000F045FD0020002500F02C
:101A20004DFD00F013FD20460121FEF717FF00F0E9
:101A30003BFF0B4840210160BFF34F8F8021BFF374
:101A40006F8F4160BFF34F8F064CBFF36F8F2078CD
:101A500010B100F009F82570B0BD00BF11000020E2
:101A600080E100E01801002010B5594C4FF40051FE
:101A70002046FEF7F5FE642000F022F8A4F586303B
:101A80000121FFF7F1FB642000F01AF8002000F0BC
:101A900015FD20460121FEF7E3FE054840210160C7
:101AA000802141600120BDE8104000F037B800BF40
:101AB00000E100E000F014FB294801210170FEE77D
:101AC00003494A6810444A689042FCD1704700BFFD
:101AD00018000020B0B50A4900EBC0000A684C6845
:101AE000C00000234D68AC42FCD023445B1BAC42D9
:101AF00098BF134483422C4628BFB0BDF2E700BF15
:101B000014E000E080B50E488021FEF7A2FE02211D
:101B1000002808BF0121084680BD00BF80B50146EE
:101B2000F848012904D18021FEF798FE022003E045
:101B30008021FEF795FE0120BDE8804000F00DBC3D
:101B40000008014006480221417070470448012105
:101B50004170704702480021817014210181704753
:101B60009A0000202DE9F041124D80460027002404
:101B7000022C19D82846414601220723FEF72CFBE8
:101B800028460121FEF757FB28460221FEF7FAFA04
:101B90000028F9D02846FEF7F2FA06460520FFF79E
:101BA0008FFF37440134E3E70320B7FBF0F080B246
:101BB000BDE8F0810028014001480421FEF749BE3C
:101BC000000C014002484FF40051FEF742BE00BF36
:101BD0000010014068480078704700BF7FB5644C32
:101BE00005212078B0FBF1F101EB8101401A40F3AF
:101BF000020100291AD4DFE800F00227303F0DF17E
:101C00000E0003A90DF10A0200F0BAF8BDF80E00AB
:101C1000A080BDF80C00E080BDF80A002081FFF72D
:101C2000B9F9B0FA80F04009607051E0607800289E
:101C30004ED00DF10201012000F0DCFA000627D0A1
:101C4000A07800F0FD0042E002A800F0F9FA0006DA
:101C50003ED1BDF8080060813AE00DF1060000F0C9
:101C6000D9FA000634D1BDF90600B0F50C7FA08189
:101C700077DD00F001FC2BE0607848B301A900207B
:101C800000F0B8FA000613D0A07800F0FE001EE0C5
:101C9000BDF90210374811F1F10F418004DC012039
:101CA00000F000FC00F0DAFBA07840F002000EE04B
:101CB000BDF904102F4811F1F10F018004DC01205F
:101CC00000F0F0FB00F0CAFBA07840F00100A0702B
:101CD00029492078097801300029207040D000F08F
:101CE0000300032804D0012804D100F0B3FB01E075
:101CF00000F0ACFB21480078012802D1022000F05E
:101D0000D1FBA07880071CD01A4E6FF0EF0000F1D5
:101D10005002B6F90000B6F902104FF61075904265
:101D2000C8BF914204DD022000F0BCFB71883088FE
:101D300005F1A00212B209B2914202DC00B2904257
:101D400002DD022000F0AEFB607810B9022000F046
:101D5000A9FBB4F90C00012802DB022000F0A2FB71
:101D60007FBDB0F5A07FB3DA00F078FBB0E700BF2D
:101D700008010020000000201701002011000020B1
:101D800070B514460D460646FEF764FA40083080EA
:101D9000FEF75DFA40082880FEF756FA40082080DA
:101DA000002070BD002070472DE9F04F85B0544CE5
:101DB000042001214FF004094FF00108A04708203A
:101DC0000121A04710200121A04720200121A04788
:101DD00001200121A0474B4D40212846FEF73EFD42
:101DE00049486E46DFF824A1009028463146D04786
:101DF000474805F58064009020463146D04705F5F8
:101E0000006738464FF40051FEF728FD414831463F
:101E100000903846D0474FF44040ADF800004820CD
:101E20008DF8030038463146D04720460421FEF79E
:101E300017FD05F540600221FEF712FD364801212D
:101E4000FEF7CCFC4FF440708DF81390ADF8100005
:101E500004A92046D047314F01200821B84701206E
:101E60000921B8474FF4807002AD2D4E8DF80E80D9
:101E700002904FF4805B2846ADF80CB0B0474FF4A9
:101E800000708DF80E8002902846ADF80CB0B04777
:101E90002448254D019001A8A84703208DF81390F0
:101EA000ADF8100004A92046D04701200021B84712
:101EB00001200121B84702AC4FF4406720468DF85D
:101EC0000E80CDF80880ADF80C70B04702208DF878
:101ED0000E8002902046ADF80C70B047134801AC5C
:101EE00001902046A8474FF48370ADF804002046C7
:101EF000A847FFF75DFC002005B0BDE8F08F00BFEC
:101F0000B510000800080140C000021029070008B1
:101F10001C8002109121021000023000010700080D
:101F2000A106000817020101CD0F000807000101FA
:101F300080B5CE48FEF7B2FE002080BD10B50C483B
:101F4000012107300022132910D04B1E022440F833
:101F5000012CA0F8032000F8011C092B38BF6FF0FA
:101F60000F04E31A037001310630ECE7002010BDC6
:101F70002800002003480078002808BFFEF744BF6F
:101F8000704700BF9A0000202DE9F04188B0244F2F
:101F9000044664284FF002004FF001014FF064083E
:101FA00028BF44463C70FFF76DF81E481E4D009058
:101FB00005F586306946FEF7B7FB1C480121FEF7A0
:101FC0000DFC788800260138ADF81660ADF81A606F
:101FD000ADF81800164817490068B0FBF1F005A9E4
:101FE0000138ADF814002846FFF7C0F91248ADF8E3
:101FF0000C600190C4F164007988C0B24843B0FB22
:10200000F8F0ADF81060ADF80A0001A92846FFF716
:102010007BF928460821FFF79FF908B0BDE8F08159
:10202000040000200002011800040040000C1A0007
:102030000C00002080841E007000010010B51C48B8
:10204000044634F8021F00886FF35F216FF35F20AE
:1020500040EA412000F0A8F9844800212246BDE86A
:10206000104000F0BCB800BFB0B5114D04466FF38E
:102070005F20288000F008F8C4F348206880BDE89D
:10208000B040FFF7DBBF00BF10B5094C6088218866
:102090006FF35F206FF35F2141EA402000F084F985
:1020A000044800212246BDE8104000F098B800BF67
:1020B0001200002000580040BCB56C4C4FF6FF7079
:1020C0000DF10605ADF8060004F5806000212A46F2
:1020D00000F085F8204600212A4600F080F8BCBDBB
:1020E000BCB5624C45F6FF700DF10605ADF8060073
:1020F00004F5806000212A4600F071F82046002196
:102100002A4600F06CF8BCBDFFF7C6FA0C4C01255E
:102110000CA6218800200F28FBD80029F9D005FA49
:1021200000F20A4205D09143821F092A218002D27F
:1021300089B20130EFE756F820008047E9E700BF99
:102140001A010020D9160008A5260008F527000866
:10215000DD1B000871220008511800080000000073
:10216000000000000000000000000000000000006F
:10217000000000000000000000000000000000005F
:10218000751F000810B5394C04F58060FEF786FD18
:102190002046BDE81040FEF781BD00BFE0B5134604
:1021A000022201F00E01009240310022FEF782FD72
:1021B0008CBDE0B51346022201F00E0100924031C1
:1021C0000222FEF777FD8CBDE0B51346022201F036
:1021D0000E01009240310622FEF7B0FD8CBDE0B545
:1021E0001346022201F00E01009240310222FEF756
:1021F000A5FD8CBD10B50C46FEF76AF800F28331E0
:1022000089B240F6533291428EBF4FF0FF302080AA
:10221000002010BD1CB504460220009013480DF1AB
:10222000060392210022FEF745FD10B14FF0FF306A
:102230001CBDBDF80600C0BA0009208000201CBDEE
:102240001CB504460220009008480DF106039021B9
:102250000022FEF72FFD10B14FF0FF301CBDBDF87E
:102260000600C0BA0009208000201CBD00540040B8
:1022700070B5234EF07800F00300DFE800F0021A9A
:102280000912B6F90A00B6F90C1000F03FF832E076
:10229000B6F90400B6F90610B6F9082000F0C4F843
:1022A00029E01849B1F90000B1F9021000F070F806
:1022B00021E0FFF78FFC0446FFF77EFC0546002C6B
:1022C00018BF0124FFF71EFC00F00100B5FA85F1EC
:1022D00040EAC400490940EA4104FFF763FD0A49A6
:1022E00000F001000A786E4944EA8000097880F025
:1022F000010000F03FF8F0780130F07070BD00BFD1
:10230000080100200000002004000020E0B5ADF826
:102310000310ADF8010003208DF80000684600F0BE
:102320004FF88CBDE0B58DF802108DF801000A2041
:102330008DF80000684600F043F88CBDE0B58DF8DC
:10234000031001218DF802108DF8010005208DF891
:102350000000684600F034F88CBDE0B50D218DF822
:102360000010012121EA00008DF80300684600F00A
:1023700027F88CBDE0B58DF8030002208DF8000031
:1023800068468DF802208DF8011000F019F88CBD18
:10239000E0B5ADF80310ADF8010011208DF8000094
:1023A000684600F00DF88CBDE0B500216FF39F404A
:1023B0008DF80010CDF80100684600F001F88CBDE2
:1023C0002DE9FC41164F397831B3A5218DF8001065
:1023D0000168E846CDF80110007906218DF8050066
:1023E0004046FFF72BFA0F4D00248DF80600072C0E
:1023F0000FD0387858B118F8046028468021FFF7CC
:1024000083F80028F9D028463146FFF709F901344E
:10241000EDE70020BDE8FC814FF0FF30BDE8FC8116
:10242000A800002000480040E0B56FF39F2061F352
:1024300093206FF39F22042340EA02508DF800306E
:10244000CDF801006846FFF7BBFF8CBD134804219F
:10245000FEF706BA11480421FEF700BA10B50F4C7A
:1024600008212046FEF7FAF920461021FEF7F6F97A
:102470000B480021017010BD10B588480078022873
:102480000BD3064C08212046FEF7EAF9204610211E
:10249000FEF7E6F902486421017010BD000C01400E
:1024A00016010020012808BFFEF7E0BC80B5FEF74A
:1024B000BDFCBDE88040FFF7C9BF000010B5122881
:1024C00001D9FF2028E0411E08290CD8C0F10900DD
:1024D000012101FA00F0C6490A8810430880BDE8CE
:1024E0001040FFF7D1BD0A280CD3C0F11200012122
:1024F00001FA00F0BE494A8810434880BDE8104008
:10250000FFF79CBDBA484FF0FF310160FFF7BCFDFB
:102510000446FFF793FD2044C0B210BD10B5122849
:1025200001D9FF2029E0411E08290DD8C0F109007A
:10253000012101FA00F0AE490A8822EA0000088071
:10254000BDE81040FFF7A0BD0A280DD3C0F112006E
:10255000012101FA00F0A6494A8822EA00004880D9
:10256000BDE81040FFF76ABDA14800210160FFF7F8
:102570008BFD0446FFF762FD2044C0B210BD00BFD2
:1025800080B50420FEF7EAFD0B484FF47A7100682D
:10259000B0FBF1F0411E0020B0EB116F1CBF012019
:1025A00080BD064AF023516005490B7007239060F7
:1025B000136020220A7080BD0C00002010E000E0B3
:1025C00023ED00E010B5334C0A21606801306060F3
:1025D0006068B0FBF1F101EB8101A0EB410020B993
:1025E0002D48018841F001010180606840F2B1117D
:1025F000B0FBF1F202FB11000A2804D12648018841
:1026000041F400410180A748007802282AD3042819
:102610001BD160680A21B0FBF1F101EB8101A0EB55
:102620004100022804D11C48018841F002010180C8
:1026300060684FF4FA71B0FBF1F202FB110020B9AF
:102640001548018841F010010180606840F21511C1
:10265000B0FBF1F202FB110020B90F48018841F0F4
:10266000080101800E484FF40051FEF7F2F80128EE
:102670000ED160680A21B0FBF1F101EB8101A0EB02
:102680004100042804D10448018841F0040101807C
:1026900010BD00BF180000201A010020110000200A
:1026A000001001402DE9FC41DFF83C8198F8000062
:1026B000D8B1122825D809281AD94C480DF106029C
:1026C0000821FFF76BFDE0B9BDF80600B8F804106B
:1026D0006FF35F20884205D04549A8F80400488080
:1026E000FFF7ACFC4FF0090C25E0012088F8000052
:1026F0003E480DF1060200F580600821FFF74EFD0F
:1027000048B198F800000A2814BF0A20012088F870
:102710000000BDE8FC81BDF80600B8F802106FF3B8
:102720005F20884205D03249A8F802000880FFF7F0
:10273000ABFC4FF0000C0CEB4C00BDF8067008EB46
:1027400040034FF0000E002600210020362E18D046
:1027500027FA01F00C469A19C00739D0A2F80AE00E
:10276000157A0636611CFD20012DEFD19819002144
:102770008170012050720CEB0400013088F80100D8
:1027800003E00028BDD198F8010098F800100A2253
:102790000A2908BF0122010688F80020B9D0C0B27A
:1027A000013800EB400008EB4001084610F8092F03
:1027B000012A08D100220270C879097A002918BFBD
:1027C0000121FFF7AFFD002088F80100BDE8FC8182
:1027D00050890130508180B203289AD3107A0028A2
:1027E00097D101201072C4E7280000200054004057
:1027F0001200002070B5FFF7E5F9F8B1294D284E19
:1028000029783089012908BF00281DD0002845D02B
:1028100001383081000441D1FFF7C2F8044628781E
:10282000012814D1012C39D0032C25D14FF4487044
:102830003081032028700120B07070BD18480189D4
:1028400061B30021018170BD1320308170BDB0786B
:10285000012805D1042C02BF0020B07070BD09E032
:10286000601E032819D8DFE800F002050C120120D1
:10287000307012E0FFF71EF9142030810320287019
:1028800070BD0120B0704FF44870308105E0002029
:10289000B0704FF4E13000F03DF82C7070BD00BF17
:1028A0009A00002011000020BCB5444C174804F5E4
:1028B0004845019001A92846FDF736FF28464FF408
:1028C0008061FDF7CBFF28464FF40061FDF7C6FF9E
:1028D0002046FEF7CFFD204600210025FEF7C1FD72
:1028E000204640F225510022FEF72FFE204640F2FE
:1028F00024410022FEF729FE0548802101602D4871
:10290000BFF34F8FBFF36F8F0570BCBD000C021477
:1029100084E100E02DE9F04387B0DFF898800446B9
:1029200008F10B004321FDF704FC102001214FF0BA
:102930000109FEF7BFFB4FF480200121FEF7A2FB47
:1029400001200121FEF7B6FB1C4D1B4805F548464A
:1029500006AF069030463946FDF7E6FE04208DF8B6
:102960001B004FF40060ADF8180030463946FDF703
:10297000DBFE13480121FDF731FF02AE3046FEF7C2
:1029800053FE284631460294FEF7F6FD2846012103
:10299000FEF767FD284640F225510122FEF7D5FDDE
:1029A0000848019001A8FEF711FB88F8009007B0D5
:1029B000BDE8F083A8000020000402180048004091
:1029C000100014002701000150B110B50139445C1A
:1029D000C9B2FEF733FF201A18BF4FF0FF3010BD09
:1029E0004FF0FF30704780B5FDF7A4FCFFF7A0FA69
:1029F000BDE88040FEF722BE02E008C8121F08C1F1
:102A0000002AFAD170477047002001E001C1121F6F
:102A1000002AFBD1704702040608000000000102F2
:102A2000030401020304060708090000502A0008F5
:102A30000000002018000000F8290008682A00089B
:102A40001800002008050000082A00080000000007
:102A500030F830F86400A00F8813000000A24A0488
:082A60000701FFFFFFFF00006A
:04000005080000ED02
:00000001FF
